:020000040800F2
:1000000060020020710100087501000877010008F6
:10001000790100087B0100087D0100080000000054
:100020000000000000000000000000007F01000848
:10003000810100080000000083010008850100081C
:100040008701000887010008870100088701000870
:100050008701000887010008870100088701000860
:100060008701000887010008870100088701000850
:100070008701000887010008870100088701000840
:100080008701000887010008870100088701000830
:100090008701000887010008870100088701000820
:1000A0008701000887010008870100088701000810
:1000B0008701000887010008870100088701000800
:1000C00087010008870100088701000887010008F0
:1000D00087010008870100088701000887010008E0
:1000E00087010008870100088701000800F002F876
:1000F00000F02EF80AA090E8000C82448344AAF194
:100100000107DA4501D100F023F8AFF2090EBAE891
:100110000F0013F0010F18BFFB1A43F0010318473B
:100120001C0100002C0100000023002400250026F3
:10013000103A28BF78C1FBD8520728BF30C148BF4A
:100140000B6070471FB500F072F81FBD10B510BDF1
:1001500000F02DF81146FFF7F5FF00F023F800F04E
:100160004BF803B4FFF7F2FF03BC00F055F80000B2
:1001700008480047FEE7FEE7FEE7FEE7FEE7FEE78A
:10018000FEE7FEE7FEE7FEE703480449024A044BA8
:1001900070470000ED0000086000002060020020B1
:1001A0006000002000207047704770477047754618
:1001B00000F028F8AE4605006946534620F00700D7
:1001C000854618B020B5FFF7DFFFBDE820404FF0AF
:1001D00000064FF000074FF000084FF0000B21F031
:1001E0000701AC46ACE8C009ACE8C009ACE8C009FE
:1001F000ACE8C0098D4670470446AFF30080204646
:10020000FFF7AFFF0048704700000020014870472B
:10021000704700000400002003494FF01800ABBEF7
:10022000704700000900000026000200704710B56A
:10023000FFF7ECFF4FF00001016010BD4C02000819
:0C024000000000206002000028010008FF
:04000005080001717D
:00000001FF
