:020000040800F2
:10000000600600200D020008150200081702000813
:10001000190200081B0200081D0200080000000071
:100020000000000000000000000000001F020008A7
:100030002102000800000000230200082502000839
:1000400027020008270200082702000827020008EC
:1000500027020008270200082702000827020008DC
:1000600027020008270200082702000827020008CC
:1000700027020008270200082702000827020008BC
:1000800027020008270200082702000827020008AC
:10009000270200082702000827020008C9020008FA
:1000A000270200082702000827020008270200088C
:1000B000270200082702000827020008270200087C
:1000C000270200082702000827020008270200086C
:1000D000270200082702000827020008270200085C
:1000E000270200082702000827020008270200084C
:1000F000270200082702000827020008270200083C
:10010000270200082702000827020008270200082B
:10011000270200082702000827020008270200081B
:10012000270200082702000827020008270200080B
:1001300027020008270200082702000827020008FB
:1001400027020008270200082702000827020008EB
:1001500027020008270200082702000827020008DB
:1001600027020008270200082702000827020008CB
:1001700027020008270200082702000800000000EC
:10018000270200082702000800F002F800F02EF80D
:100190000AA090E8000C82448344AAF10107DA45E2
:1001A00001D100F023F8AFF2090EBAE80F0013F006
:1001B000010F18BFFB1A43F0010318478801000024
:1001C000980100000023002400250026103A28BFD3
:1001D00078C1FBD8520728BF30C148BF0B607047B9
:1001E0001FB500F0A1F81FBD10B510BD00F031F82B
:1001F0001146FFF7F5FF00F095F800F04FF803B453
:10020000FFF7F2FF03BC00F057F8000009488047F1
:1002100009480047FEE7FEE7FEE7FEE7FEE7FEE7E8
:10022000FEE7FEE7FEE7FEE704480549054A064B00
:1002300070470000CD02000889010008600000201E
:1002400060060020600200206002002070477047B6
:100250007047754600F02CF8AE46050069465346D7
:1002600020F00700854618B020B5FFF7DDFFBDE898
:1002700020404FF000064FF000074FF000084FF00D
:10028000000BAC46ACE8C009ACE8C009ACE8C0095A
:10029000ACE8C00921F007018D46704710B504464F
:1002A000AFF300802046BDE81040FFF7A8BF000074
:1002B000004870470000002001491820ABBEFEE74F
:1002C0002600020070470000704700004EF688507C
:1002D000CEF2000001684FF0000C41F470010160A3
:1002E00043F60001C4F202010A6842F001020A600A
:1002F000C1F808C00B684FF6FF72CFF6F6621A40DD
:100300000A6043F21002C2F200424A600A6822F414
:1003100080220A60C1F80CC04FF0006140F8801CD8
:100320007047000000207047F1EE100A4FF6FF7191
:10033000C0F2C03120EA010040F04070E1EE100A46
:100340007047000054030008000000206006000011
:04035000C4010008DC
:040000050800020DE0
:00000001FF
